{
  "_format": "hh-sol-artifact-1",
  "contractName": "PersonalInviteFactory",
  "sourceName": "contracts/PersonalInviteFactory.sol",
  "abi": [
    {
      "anonymous": false,
      "inputs": [
        {
          "indexed": true,
          "internalType": "address",
          "name": "addr",
          "type": "address"
        }
      ],
      "name": "Deploy",
      "type": "event"
    },
    {
      "inputs": [
        {
          "internalType": "bytes32",
          "name": "_salt",
          "type": "bytes32"
        },
        {
          "internalType": "address",
          "name": "_currencyPayer",
          "type": "address"
        },
        {
          "internalType": "address",
          "name": "_tokenReceiver",
          "type": "address"
        },
        {
          "internalType": "address",
          "name": "_currencyReceiver",
          "type": "address"
        },
        {
          "internalType": "uint256",
          "name": "_tokenAmount",
          "type": "uint256"
        },
        {
          "internalType": "uint256",
          "name": "_tokenPrice",
          "type": "uint256"
        },
        {
          "internalType": "uint256",
          "name": "_expiration",
          "type": "uint256"
        },
        {
          "internalType": "contract IERC20",
          "name": "_currency",
          "type": "address"
        },
        {
          "internalType": "contract IERC20",
          "name": "_token",
          "type": "address"
        }
      ],
      "name": "deploy",
      "outputs": [
        {
          "internalType": "address",
          "name": "",
          "type": "address"
        }
      ],
      "stateMutability": "nonpayable",
      "type": "function"
    },
    {
      "inputs": [
        {
          "internalType": "bytes32",
          "name": "_salt",
          "type": "bytes32"
        },
        {
          "internalType": "address",
          "name": "_currencyPayer",
          "type": "address"
        },
        {
          "internalType": "address",
          "name": "_tokenReceiver",
          "type": "address"
        },
        {
          "internalType": "address",
          "name": "_currencyReceiver",
          "type": "address"
        },
        {
          "internalType": "uint256",
          "name": "_amount",
          "type": "uint256"
        },
        {
          "internalType": "uint256",
          "name": "_tokenPrice",
          "type": "uint256"
        },
        {
          "internalType": "uint256",
          "name": "_expiration",
          "type": "uint256"
        },
        {
          "internalType": "contract IERC20",
          "name": "_currency",
          "type": "address"
        },
        {
          "internalType": "contract IERC20",
          "name": "_token",
          "type": "address"
        }
      ],
      "name": "getAddress",
      "outputs": [
        {
          "internalType": "address",
          "name": "",
          "type": "address"
        }
      ],
      "stateMutability": "view",
      "type": "function"
    }
  ],
  "bytecode": "0x6080806040523461001657610bca908161001c8239f35b600080fdfe60406080815260043610156200001457600080fd5b6000803560e01c80638c6fccf114620001375763ac8e01e2146200003757600080fd5b3462000134576200005f6200004c3662000185565b9698979895909594919493929362000260565b90815115620000f15781516001600160a01b039260200184f5168015620000ad57807f55ea6c6b31543d8e2ec6a72f71a79c0f4b72ed0d4757172b043d8f4f4cd84848602094519380a28152f35b825162461bcd60e51b815260206004820152601960248201527f437265617465323a204661696c6564206f6e206465706c6f79000000000000006044820152606490fd5b6064845162461bcd60e51b815260206004820152602060248201527f437265617465323a2062797465636f6465206c656e677468206973207a65726f6044820152fd5b80fd5b50903462000181576020906055600b620001556200004c3662000185565b8581519101209084519185830152858201523081520160ff81532090516001600160a01b039091168152f35b5080fd5b610120906003190112620001f557600435906001600160a01b03906024358281168103620001f557916044358181168103620001f557916064358281168103620001f557916084359160a4359160c4359160e4358281168103620001f55791610104359081168103620001f55790565b600080fd5b90601f8019910116810190811067ffffffffffffffff8211176200021d57604052565b634e487b7160e01b600052604160045260246000fd5b9081519160005b8381106200024c575050016000815290565b80602080928401015181850152016200023a565b9295919694909361086d96604051976200027e602082018a620001fa565b8089526200032860208a01396020604051998a9660018060a01b039889988994858094169101521660408c01521660608a0152608089015260a088015260c08701521660e0850152610100911681840152825261012082019180831067ffffffffffffffff8411176200021d576200030f6200030862000324938560405261014084019062000233565b8262000233565b0361013f198101835261011f190182620001fa565b9056fe608060409080825234610234576101008161086d80380380916100228285610591565b83398101031261023457610035816105ca565b60206100428184016105ca565b9061004e8585016105ca565b9360608101519160808201519060a08301519560c08401519760018060a01b0391828a1695868b036102345760e0015199838b16809b036102345783821698891561053e578416998a156104eb578484161561049557861561045157421161041e57858802938885048714891517156104085785948c8e519687809263313ce56760e01b82526004998a915afa9081156102c1576000916103d0575b5060ff16604d81116103bb57878f96959493928f908993600a0a6000918015600014610347575050506000975b51630e3301dd60e11b815292839182905afa9081156102c15760009161030d575b50168d805163ec4a43c160e01b815286888201528881602481865afa9283156103025788928a926000956102cc575b508461024e575b50505050840393841161023957906101879392916105de565b873b15610234578851906340c10f1960e01b82528781830152856024830152600082604481838d5af18015610229576101fb575b50508751938452830152818601527fa3e70ed7d302d8ea88c53a759a815388fef7a05445904d79b6c26dbbdb6dc17090606090a451603a90816108338239f35b6001600160401b038211610214575088528160606101bb565b604190634e487b7160e01b6000525260246000fd5b8a513d6000823e3d90fd5b600080fd5b601185634e487b7160e01b6000525260246000fd5b516331056e5760e21b815292839182905afa80156102c1578290600090610285575b61027c925085856105de565b85878f8061016e565b90508882813d83116102ba575b61029c8183610591565b810103126102b75750816102b261027c926105ca565b610270565b80fd5b503d610292565b8f513d6000823e3d90fd5b935050929082813d83116102fb575b6102e58183610591565b810103126102b75750878f928892519338610167565b503d6102db565b82513d6000823e3d90fd5b8881813d8311610340575b6103228183610591565b8101031261033c57519082821682036102b7575038610138565b5080fd5b503d610318565b935093509394959697505060001981019081116103a85781156103955704906001820180921161038257509085878f969594938f9097610117565b634e487b7160e01b815260118752602490fd5b634e487b7160e01b835260128852602483fd5b634e487b7160e01b835260118852602483fd5b601187634e487b7160e01b6000525260246000fd5b8881813d8311610401575b6103e58183610591565b8101031261033c57519060ff821682036102b7575060ff6100ea565b503d6103db565b634e487b7160e01b600052601160045260246000fd5b8b5162461bcd60e51b815260048101869052600c60248201526b1119585b08195e1c1a5c995960a21b6044820152606490fd5b8c5162461bcd60e51b815260048101879052601b60248201527f5f746f6b656e50726963652063616e206e6f74206265207a65726f00000000006044820152606490fd5b8c5162461bcd60e51b815260048101879052602960248201527f5f63757272656e637952656365697665722063616e206e6f74206265207a65726044820152686f206164647265737360b81b6064820152608490fd5b8c5162461bcd60e51b815260048101879052602660248201527f5f746f6b656e52656365697665722063616e206e6f74206265207a65726f206160448201526564647265737360d01b6064820152608490fd5b8c5162461bcd60e51b815260048101879052602660248201527f5f63757272656e637950617965722063616e206e6f74206265207a65726f206160448201526564647265737360d01b6064820152608490fd5b601f909101601f19168101906001600160401b038211908210176105b457604052565b634e487b7160e01b600052604160045260246000fd5b51906001600160a01b038216820361023457565b6040516323b872dd60e01b60208083019182526001600160a01b039485166024840152948416604483015260648083019690965294815292939260a08101926001600160401b0392838511838610176105b457169060e08101848110848211176105b4576040528584527f5361666545524332303a206c6f772d6c6576656c2063616c6c206661696c656460c0820152600080958192519082855af1903d15610753573d92831161073f57906106b4939291604051926106a788601f19601f8401160185610591565b83523d868885013e61075e565b8051806106c2575b50505050565b8184918101031261033c57820151908115918215036102b757506106e8578080806106bc565b6084906040519062461bcd60e51b82526004820152602a60248201527f5361666545524332303a204552433230206f7065726174696f6e20646964206e6044820152691bdd081cdd58d8d9595960b21b6064820152fd5b634e487b7160e01b85526041600452602485fd5b906106b49392506060915b919290156107c05750815115610772575090565b3b1561077b5790565b60405162461bcd60e51b815260206004820152601d60248201527f416464726573733a2063616c6c20746f206e6f6e2d636f6e74726163740000006044820152606490fd5b8251909150156107d35750805190602001fd5b6040519062461bcd60e51b82528160208060048301528251908160248401526000935b828510610819575050604492506000838284010152601f80199101168101030190fd5b84810182015186860160440152938101938593506107f656fe600080fdfea2646970667358221220797092fa24bfe2fc23a9f1552c5df734887bd61da24e1c8fde336b62bfb4bb6764736f6c63430008110033a2646970667358221220c8cd04e526415781381b48862a4648591723fa53b3b112cad3e4d4c36ed677db64736f6c63430008110033",
  "linkReferences": {},
  "deployedLinkReferences": {}
}