{
  "_format": "hh-sol-artifact-1",
  "contractName": "ContinuousFundraising",
  "sourceName": "contracts/ContinuousFundraising.sol",
  "abi": [
    {
      "inputs": [
        {
          "internalType": "address",
          "name": "_trustedForwarder",
          "type": "address"
        },
        {
          "internalType": "address",
          "name": "_currencyReceiver",
          "type": "address"
        },
        {
          "internalType": "uint256",
          "name": "_minAmountPerBuyer",
          "type": "uint256"
        },
        {
          "internalType": "uint256",
          "name": "_maxAmountPerBuyer",
          "type": "uint256"
        },
        {
          "internalType": "uint256",
          "name": "_tokenPrice",
          "type": "uint256"
        },
        {
          "internalType": "uint256",
          "name": "_maxAmountOfTokenToBeSold",
          "type": "uint256"
        },
        {
          "internalType": "contract IERC20",
          "name": "_currency",
          "type": "address"
        },
        {
          "internalType": "contract Token",
          "name": "_token",
          "type": "address"
        }
      ],
      "stateMutability": "nonpayable",
      "type": "constructor"
    },
    {
      "anonymous": false,
      "inputs": [
        {
          "indexed": true,
          "internalType": "address",
          "name": "",
          "type": "address"
        }
      ],
      "name": "CurrencyReceiverChanged",
      "type": "event"
    },
    {
      "anonymous": false,
      "inputs": [
        {
          "indexed": false,
          "internalType": "uint256",
          "name": "",
          "type": "uint256"
        }
      ],
      "name": "MaxAmountOfTokenToBeSoldChanged",
      "type": "event"
    },
    {
      "anonymous": false,
      "inputs": [
        {
          "indexed": false,
          "internalType": "uint256",
          "name": "",
          "type": "uint256"
        }
      ],
      "name": "MaxAmountPerBuyerChanged",
      "type": "event"
    },
    {
      "anonymous": false,
      "inputs": [
        {
          "indexed": false,
          "internalType": "uint256",
          "name": "",
          "type": "uint256"
        }
      ],
      "name": "MinAmountPerBuyerChanged",
      "type": "event"
    },
    {
      "anonymous": false,
      "inputs": [
        {
          "indexed": true,
          "internalType": "address",
          "name": "previousOwner",
          "type": "address"
        },
        {
          "indexed": true,
          "internalType": "address",
          "name": "newOwner",
          "type": "address"
        }
      ],
      "name": "OwnershipTransferStarted",
      "type": "event"
    },
    {
      "anonymous": false,
      "inputs": [
        {
          "indexed": true,
          "internalType": "address",
          "name": "previousOwner",
          "type": "address"
        },
        {
          "indexed": true,
          "internalType": "address",
          "name": "newOwner",
          "type": "address"
        }
      ],
      "name": "OwnershipTransferred",
      "type": "event"
    },
    {
      "anonymous": false,
      "inputs": [
        {
          "indexed": false,
          "internalType": "address",
          "name": "account",
          "type": "address"
        }
      ],
      "name": "Paused",
      "type": "event"
    },
    {
      "anonymous": false,
      "inputs": [
        {
          "indexed": false,
          "internalType": "uint256",
          "name": "",
          "type": "uint256"
        },
        {
          "indexed": true,
          "internalType": "contract IERC20",
          "name": "",
          "type": "address"
        }
      ],
      "name": "TokenPriceAndCurrencyChanged",
      "type": "event"
    },
    {
      "anonymous": false,
      "inputs": [
        {
          "indexed": true,
          "internalType": "address",
          "name": "buyer",
          "type": "address"
        },
        {
          "indexed": false,
          "internalType": "uint256",
          "name": "tokenAmount",
          "type": "uint256"
        },
        {
          "indexed": false,
          "internalType": "uint256",
          "name": "currencyAmount",
          "type": "uint256"
        }
      ],
      "name": "TokensBought",
      "type": "event"
    },
    {
      "anonymous": false,
      "inputs": [
        {
          "indexed": false,
          "internalType": "address",
          "name": "account",
          "type": "address"
        }
      ],
      "name": "Unpaused",
      "type": "event"
    },
    {
      "inputs": [],
      "name": "acceptOwnership",
      "outputs": [],
      "stateMutability": "nonpayable",
      "type": "function"
    },
    {
      "inputs": [
        {
          "internalType": "uint256",
          "name": "_amount",
          "type": "uint256"
        },
        {
          "internalType": "address",
          "name": "_tokenReceiver",
          "type": "address"
        }
      ],
      "name": "buy",
      "outputs": [],
      "stateMutability": "nonpayable",
      "type": "function"
    },
    {
      "inputs": [],
      "name": "coolDownStart",
      "outputs": [
        {
          "internalType": "uint256",
          "name": "",
          "type": "uint256"
        }
      ],
      "stateMutability": "view",
      "type": "function"
    },
    {
      "inputs": [],
      "name": "currency",
      "outputs": [
        {
          "internalType": "contract IERC20",
          "name": "",
          "type": "address"
        }
      ],
      "stateMutability": "view",
      "type": "function"
    },
    {
      "inputs": [],
      "name": "currencyReceiver",
      "outputs": [
        {
          "internalType": "address",
          "name": "",
          "type": "address"
        }
      ],
      "stateMutability": "view",
      "type": "function"
    },
    {
      "inputs": [],
      "name": "delay",
      "outputs": [
        {
          "internalType": "uint256",
          "name": "",
          "type": "uint256"
        }
      ],
      "stateMutability": "view",
      "type": "function"
    },
    {
      "inputs": [
        {
          "internalType": "address",
          "name": "forwarder",
          "type": "address"
        }
      ],
      "name": "isTrustedForwarder",
      "outputs": [
        {
          "internalType": "bool",
          "name": "",
          "type": "bool"
        }
      ],
      "stateMutability": "view",
      "type": "function"
    },
    {
      "inputs": [],
      "name": "maxAmountOfTokenToBeSold",
      "outputs": [
        {
          "internalType": "uint256",
          "name": "",
          "type": "uint256"
        }
      ],
      "stateMutability": "view",
      "type": "function"
    },
    {
      "inputs": [],
      "name": "maxAmountPerBuyer",
      "outputs": [
        {
          "internalType": "uint256",
          "name": "",
          "type": "uint256"
        }
      ],
      "stateMutability": "view",
      "type": "function"
    },
    {
      "inputs": [],
      "name": "minAmountPerBuyer",
      "outputs": [
        {
          "internalType": "uint256",
          "name": "",
          "type": "uint256"
        }
      ],
      "stateMutability": "view",
      "type": "function"
    },
    {
      "inputs": [],
      "name": "owner",
      "outputs": [
        {
          "internalType": "address",
          "name": "",
          "type": "address"
        }
      ],
      "stateMutability": "view",
      "type": "function"
    },
    {
      "inputs": [],
      "name": "pause",
      "outputs": [],
      "stateMutability": "nonpayable",
      "type": "function"
    },
    {
      "inputs": [],
      "name": "paused",
      "outputs": [
        {
          "internalType": "bool",
          "name": "",
          "type": "bool"
        }
      ],
      "stateMutability": "view",
      "type": "function"
    },
    {
      "inputs": [],
      "name": "pendingOwner",
      "outputs": [
        {
          "internalType": "address",
          "name": "",
          "type": "address"
        }
      ],
      "stateMutability": "view",
      "type": "function"
    },
    {
      "inputs": [],
      "name": "renounceOwnership",
      "outputs": [],
      "stateMutability": "nonpayable",
      "type": "function"
    },
    {
      "inputs": [
        {
          "internalType": "contract IERC20",
          "name": "_currency",
          "type": "address"
        },
        {
          "internalType": "uint256",
          "name": "_tokenPrice",
          "type": "uint256"
        }
      ],
      "name": "setCurrencyAndTokenPrice",
      "outputs": [],
      "stateMutability": "nonpayable",
      "type": "function"
    },
    {
      "inputs": [
        {
          "internalType": "address",
          "name": "_currencyReceiver",
          "type": "address"
        }
      ],
      "name": "setCurrencyReceiver",
      "outputs": [],
      "stateMutability": "nonpayable",
      "type": "function"
    },
    {
      "inputs": [
        {
          "internalType": "uint256",
          "name": "_maxAmountOfTokenToBeSold",
          "type": "uint256"
        }
      ],
      "name": "setMaxAmountOfTokenToBeSold",
      "outputs": [],
      "stateMutability": "nonpayable",
      "type": "function"
    },
    {
      "inputs": [
        {
          "internalType": "uint256",
          "name": "_maxAmountPerBuyer",
          "type": "uint256"
        }
      ],
      "name": "setMaxAmountPerBuyer",
      "outputs": [],
      "stateMutability": "nonpayable",
      "type": "function"
    },
    {
      "inputs": [
        {
          "internalType": "uint256",
          "name": "_minAmountPerBuyer",
          "type": "uint256"
        }
      ],
      "name": "setMinAmountPerBuyer",
      "outputs": [],
      "stateMutability": "nonpayable",
      "type": "function"
    },
    {
      "inputs": [],
      "name": "token",
      "outputs": [
        {
          "internalType": "contract Token",
          "name": "",
          "type": "address"
        }
      ],
      "stateMutability": "view",
      "type": "function"
    },
    {
      "inputs": [],
      "name": "tokenPrice",
      "outputs": [
        {
          "internalType": "uint256",
          "name": "",
          "type": "uint256"
        }
      ],
      "stateMutability": "view",
      "type": "function"
    },
    {
      "inputs": [
        {
          "internalType": "address",
          "name": "",
          "type": "address"
        }
      ],
      "name": "tokensBought",
      "outputs": [
        {
          "internalType": "uint256",
          "name": "",
          "type": "uint256"
        }
      ],
      "stateMutability": "view",
      "type": "function"
    },
    {
      "inputs": [],
      "name": "tokensSold",
      "outputs": [
        {
          "internalType": "uint256",
          "name": "",
          "type": "uint256"
        }
      ],
      "stateMutability": "view",
      "type": "function"
    },
    {
      "inputs": [
        {
          "internalType": "address",
          "name": "newOwner",
          "type": "address"
        }
      ],
      "name": "transferOwnership",
      "outputs": [],
      "stateMutability": "nonpayable",
      "type": "function"
    },
    {
      "inputs": [],
      "name": "unpause",
      "outputs": [],
      "stateMutability": "nonpayable",
      "type": "function"
    }
  ],
  "bytecode": "0x60a034620003de57601f6200186438819003918201601f191683019291906001600160401b03841183851017620003e357816101009284926040968752833981010312620003de576200005281620003f9565b60209062000062828401620003f9565b848401519360608101519060808101519260a08201519460c08301519060018060a01b0393848316809303620003de5760e0015192848416809403620003de578994828c936080528582620000b66200040e565b946001548260005497168360018060a01b031999828b8b16176000555198167f8be0079c531659141344cd1fd0a4f28419497f9722a3daafe3b4186f6b6457e0600080a360018060a81b031916600155600160025516948581600354161760035560049d8e55896005558a6006558b60075586816009541617600955600a541617600a5516156200038c575015620003385715620002f75715620002b457116200023e5715620001eb5715620001855782516114309081620004348239608051818181610e2001526113bd0152f35b608492519162461bcd60e51b8352820152603660248201527f5f6d6178416d6f756e744f66546f6b656e546f4265536f6c64206e656564732060448201527f746f206265206c6172676572207468616e207a65726f000000000000000000006064820152fd5b50608492519162461bcd60e51b8352820152602960248201527f5f746f6b656e5072696365206e6565647320746f2062652061206e6f6e2d7a656044820152681c9bc8185b5bdd5b9d60ba1b6064820152fd5b505060a492519162461bcd60e51b8352820152604560248201527f5f6d696e416d6f756e745065724275796572206e6565647320746f206265207360448201527f6d616c6c6572206f7220657175616c20746f205f6d6178416d6f756e74506572606482015264213abcb2b960d91b6084820152fd5b865162461bcd60e51b8152808701869052601d60248201527f746f6b656e2063616e206e6f74206265207a65726f20616464726573730000006044820152606490fd5b60648787808b519262461bcd60e51b845283015260248201527f63757272656e63792063616e206e6f74206265207a65726f20616464726573736044820152fd5b885162461bcd60e51b8152808901889052602860248201527f63757272656e637952656365697665722063616e206e6f74206265207a65726f604482015267206164647265737360c01b6064820152608490fd5b62461bcd60e51b8152898101899052602860248201527f74727573746564466f727761726465722063616e206e6f74206265207a65726f604482015267206164647265737360c01b6064820152608490fd5b600080fd5b634e487b7160e01b600052604160045260246000fd5b51906001600160a01b0382168203620003de57565b608051336001600160a01b03909116036200042f5736601319013560601c90565b339056fe608060408181526004918236101561001657600080fd5b600092833560e01c918263012175d914610fdd575081631b79903c14610fbe578163264d779714610f865781633f4ba83a14610e855781634b6e29a614610e66578163518ab2a814610e47578163572b6c0514610df55781635c975abb14610dce5781636093b9e414610d0b57816360a7547414610ced5781636a42b8f814610ccf578163715018a614610c6a57816379ba509714610b9c5781637deb6025146106455781637ff9b596146106265781638456cb59146105ae5781638c94141d146104f15781638da5cb5b146104c9578163b4aebcc614610405578163bcd92ccb14610342578163ce0358d11461025657508063e30c39781461022e578063e5a6b10f14610206578063f2fde38b14610196578063fc0c546a1461016e5763ffddcd681461014357600080fd5b3461016a578160031936011261016a5760035490516001600160a01b039091168152602090f35b5080fd5b503461016a578160031936011261016a57600a5490516001600160a01b039091168152602090f35b8234610203576020366003190112610203576101b0610ff9565b6101b8611014565b600180546001600160a01b0319166001600160a01b0392831690811790915582549091167f38d16b8cac22d99fc7c124b9cd0de2d3fa1faef420bfe791d8c362d765e227008380a380f35b80fd5b503461016a578160031936011261016a5760095490516001600160a01b039091168152602090f35b503461016a578160031936011261016a5760015490516001600160a01b039091168152602090f35b90503461033e578160031936011261033e5780356001600160a01b038116929083900361033a5760243591610289611014565b61029161136e565b82156102e65750816020917f36fdf25c7a2c4596a0d9c24bcd58b9ffb0b7e1f4b73cca2efdd71c0bb6719bc293600655846bffffffffffffffffffffffff60a01b600954161760095551908152a242600b5580f35b6020608492519162461bcd60e51b8352820152602960248201527f5f746f6b656e5072696365206e6565647320746f2062652061206e6f6e2d7a656044820152681c9bc8185b5bdd5b9d60ba1b6064820152fd5b8380fd5b8280fd5b9190503461033e57602036600319011261033e57813591610361611014565b61036961136e565b60055483116103a65791602091817fb0e2656517ba5f18860d1b5d5a9e1bc9fa9566725d01ac6eaf30524ad565d779945551908152a142600b5580f35b6020608492519162461bcd60e51b8352820152603460248201527f5f6d696e416d6f756e74206e6565647320746f20626520736d616c6c6572206f6044820152731c88195c5d585b081d1bc81b585e105b5bdd5b9d60621b6064820152fd5b9190503461033e57602036600319011261033e57813591610424611014565b61042c61136e565b82156104685750816020917f311d4e1fe5547f2eedb3ce0b858bc7e7c42eea3a92e7b68eb944a4e358ce49a59360075551908152a142600b5580f35b6020608492519162461bcd60e51b8352820152603660248201527f5f6d6178416d6f756e744f66546f6b656e546f4265536f6c64206e6565647320604482015275746f206265206c6172676572207468616e207a65726f60501b6064820152fd5b50503461016a578160031936011261016a57905490516001600160a01b039091168152602090f35b90503461033e57602036600319011261033e5761050c610ff9565b610514611014565b61051c61136e565b6001600160a01b031691821561056b575050600380546001600160a01b031916821790557f411d2df64d544ef90bd091833293db573ab8cf1228c36dfdffe1288594eb1f428280a242600b5580f35b906020606492519162461bcd60e51b8352820152602060248201527f72656365697665722063616e206e6f74206265207a65726f20616464726573736044820152fd5b50503461016a578160031936011261016a5760207f62e78cea01bee320cd4e420270b5ea74000d11b0c9f74754ebdbfc544b05a258916105ec611014565b6105f46110d2565b6001805460ff60a01b1916600160a01b17905561060f6113ba565b90516001600160a01b039091168152a142600b5580f35b50503461016a578160031936011261016a576020906006549051908152f35b83833461016a578060031936011261016a57602492803591906001600160a01b039085358281169190829003610b985761067d6110d2565b6002805414610b5657600280556008546106978682611077565b60075410610b1457828752602090600c82526106b687878a2054611077565b835411610ac457838852600c82526106d187878a2054611077565b60055410610a4957866106e391611077565b600855828752600c81528487206106fb878254611077565b905560065491828702928784041487151715610a375784600a541692865163313ce56760e01b815283818481885afa801561095a578a906109ff575b60ff915016604d81116109ed57600a0a90806109a2575050808289945b8851630e3301dd60e11b815292839182905afa90811561087b579086918a91610964575b50875163410305e960e01b815283810186905295911683868c81845afa95861561095a578a9661092b575b508561089b575b5085600954166107b86113ba565b958760035416908603918683116108895790876107d59392611119565b85600a5416803b15610885578a60448a94938c80948c5197889586946340c10f1960e01b8652898601528401525af1801561087b57610849575b50507f8442948036198f1146d3a63c3db355d7e0295c2cc5676c755990445da4fdc1c99596975084519687528601521692a2600160025580f35b67ffffffffffffffff82999399116108695750855295965086888061080f565b634e487b7160e01b8352604190528882fd5b87513d8b823e3d90fd5b8980fd5b634e487b7160e01b8c52601185528c8cfd5b82876009541691856108ab6113ba565b918b51938480926331056e5760e21b82525afa91821561092157908892918d926108e0575b506108da93611119565b8a6107aa565b87809294508193503d831161091a575b6108fa818361109a565b81010312610916575188811681036109165787916108da6108d0565b8b80fd5b503d6108f0565b8a513d8e823e3d90fd5b9095508381813d8311610953575b610943818361109a565b810103126108855751948b6107a3565b503d610939565b88513d8c823e3d90fd5b809250848092503d831161099b575b61097d818361109a565b81010312610997575185811681036109975785908b610778565b8880fd5b503d610973565b60001981019081116109ed5781156109db5704600181018091116109c95782829194610754565b634e487b7160e01b8952601182528989fd5b634e487b7160e01b8a52601283528a8afd5b634e487b7160e01b8a52601183528a8afd5b508381813d8311610a30575b610a15818361109a565b81010312610885575160ff811681036108855760ff90610737565b503d610a0b565b634e487b7160e01b8852601190528787fd5b855162461bcd60e51b8152808401839052604a818b01527f546f74616c20616d6f756e74206f6620626f7567687420746f6b656e73206e6560448201527f65647320746f206265206c6f776572207468616e206f7220657175616c20746f606482015269081b585e105b5bdd5b9d60b21b608482015260a490fd5b855162461bcd60e51b81528084018390526025818b01527f4275796572206e6565647320746f20627579206174206c65617374206d696e416044820152641b5bdd5b9d60da1b6064820152608490fd5b845162461bcd60e51b8152602081840152601e818a01527f4e6f7420656e6f75676820746f6b656e7320746f2073656c6c206c65667400006044820152606490fd5b606490601f88602087519362461bcd60e51b85528401528201527f5265656e7472616e637947756172643a207265656e7472616e742063616c6c006044820152fd5b8580fd5b90503461033e578260031936011261033e57610bb66113ba565b6001546001600160a01b039182169391929091838316859003610c155750506001600160a01b0319908116600155835490811683178455167f8be0079c531659141344cd1fd0a4f28419497f9722a3daafe3b4186f6b6457e08380a380f35b906020608492519162461bcd60e51b8352820152602960248201527f4f776e61626c6532537465703a2063616c6c6572206973206e6f7420746865206044820152683732bb9037bbb732b960b91b6064820152fd5b8334610203578060031936011261020357610c83611014565b600180546001600160a01b03199081169091558154908116825581906001600160a01b03167f8be0079c531659141344cd1fd0a4f28419497f9722a3daafe3b4186f6b6457e08280a380f35b50503461016a578160031936011261016a5760209051620151808152f35b90503461033e578260031936011261033e5760209250549051908152f35b9190503461033e57602036600319011261033e57813591610d2a611014565b610d3261136e565b82815411610d705750816020917fc61cdd87fef402f1745d6cf3e4b623a0298ae1552fd107da716d79b5ca88c12e9360055551908152a142600b5580f35b6020608492519162461bcd60e51b8352820152603360248201527f5f6d6178416d6f756e74206e6565647320746f206265206c6172676572206f7260448201527208195c5d585b081d1bc81b5a5b905b5bdd5b9d606a1b6064820152fd5b50503461016a578160031936011261016a5760209060ff60015460a01c1690519015158152f35b50503461016a57602036600319011261016a57602090610e13610ff9565b90519060018060a01b03807f0000000000000000000000000000000000000000000000000000000000000000169116148152f35b50503461016a578160031936011261016a576020906008549051908152f35b50503461016a578160031936011261016a576020906007549051908152f35b90503461033e578260031936011261033e57610e9f611014565b600b54620151808101809111610f7357421115610f0b575060207f5db9ee0a495bf2e6ff9c91a7834c1ba4fdd244a5e8aa4e537bd38aeae4b073aa91610ee361136e565b6001805460ff60a01b19169055610ef86113ba565b90516001600160a01b039091168152a180f35b6020608492519162461bcd60e51b8352820152603960248201527f5468657265206e6565647320746f206265206174206d696e696d756d206f6e6560448201527f2064617920746f206368616e676520706172616d6574657273000000000000006064820152fd5b634e487b7160e01b845260118252602484fd5b50503461016a57602036600319011261016a5760209181906001600160a01b03610fae610ff9565b168152600c845220549051908152f35b50503461016a578160031936011261016a57602090600b549051908152f35b84903461016a578160031936011261016a576020906005548152f35b600435906001600160a01b038216820361100f57565b600080fd5b6000546001600160a01b039081169061102b6113ba565b160361103357565b606460405162461bcd60e51b815260206004820152602060248201527f4f776e61626c653a2063616c6c6572206973206e6f7420746865206f776e65726044820152fd5b9190820180921161108457565b634e487b7160e01b600052601160045260246000fd5b90601f8019910116810190811067ffffffffffffffff8211176110bc57604052565b634e487b7160e01b600052604160045260246000fd5b60ff60015460a01c166110e157565b60405162461bcd60e51b815260206004820152601060248201526f14185d5cd8589b194e881c185d5cd95960821b6044820152606490fd5b6040516323b872dd60e01b60208083019182526001600160a01b039485166024840152948416604483015260648083019690965294815292939260a081019267ffffffffffffffff92838511838610176110bc57169060e08101848110848211176110bc576040528584527f5361666545524332303a206c6f772d6c6576656c2063616c6c206661696c656460c0820152600080958192519082855af1903d1561128f573d92831161127b57906111f0939291604051926111e388601f19601f840116018561109a565b83523d868885013e61129a565b8051806111fe575b50505050565b8184918101031261016a57820151908115918215036102035750611224578080806111f8565b6084906040519062461bcd60e51b82526004820152602a60248201527f5361666545524332303a204552433230206f7065726174696f6e20646964206e6044820152691bdd081cdd58d8d9595960b21b6064820152fd5b634e487b7160e01b85526041600452602485fd5b906111f09392506060915b919290156112fc57508151156112ae575090565b3b156112b75790565b60405162461bcd60e51b815260206004820152601d60248201527f416464726573733a2063616c6c20746f206e6f6e2d636f6e74726163740000006044820152606490fd5b82519091501561130f5750805190602001fd5b6040519062461bcd60e51b82528160208060048301528251908160248401526000935b828510611355575050604492506000838284010152601f80199101168101030190fd5b8481018201518686016044015293810193859350611332565b60ff60015460a01c161561137e57565b60405162461bcd60e51b815260206004820152601460248201527314185d5cd8589b194e881b9bdd081c185d5cd95960621b6044820152606490fd5b337f00000000000000000000000000000000000000000000000000000000000000006001600160a01b0316036113f65736601319013560601c90565b339056fea26469706673582212203978bf482aa1ba3a23d85ad2e82a21e053d171a5128480f38b4a7ecf5289a6e764736f6c63430008110033",
  "linkReferences": {},
  "deployedLinkReferences": {}
}