{
  "_format": "hh-sol-artifact-1",
  "contractName": "Token",
  "sourceName": "contracts/Token.sol",
  "abi": [
    {
      "inputs": [
        {
          "internalType": "address",
          "name": "_trustedForwarder",
          "type": "address"
        },
        {
          "internalType": "contract IFeeSettingsV1",
          "name": "_feeSettings",
          "type": "address"
        },
        {
          "internalType": "address",
          "name": "_admin",
          "type": "address"
        },
        {
          "internalType": "contract AllowList",
          "name": "_allowList",
          "type": "address"
        },
        {
          "internalType": "uint256",
          "name": "_requirements",
          "type": "uint256"
        },
        {
          "internalType": "string",
          "name": "_name",
          "type": "string"
        },
        {
          "internalType": "string",
          "name": "_symbol",
          "type": "string"
        }
      ],
      "stateMutability": "nonpayable",
      "type": "constructor"
    },
    {
      "anonymous": false,
      "inputs": [
        {
          "indexed": true,
          "internalType": "contract AllowList",
          "name": "newAllowList",
          "type": "address"
        }
      ],
      "name": "AllowListChanged",
      "type": "event"
    },
    {
      "anonymous": false,
      "inputs": [
        {
          "indexed": true,
          "internalType": "address",
          "name": "owner",
          "type": "address"
        },
        {
          "indexed": true,
          "internalType": "address",
          "name": "spender",
          "type": "address"
        },
        {
          "indexed": false,
          "internalType": "uint256",
          "name": "value",
          "type": "uint256"
        }
      ],
      "name": "Approval",
      "type": "event"
    },
    {
      "anonymous": false,
      "inputs": [
        {
          "indexed": true,
          "internalType": "contract IFeeSettingsV1",
          "name": "newFeeSettings",
          "type": "address"
        }
      ],
      "name": "FeeSettingsChanged",
      "type": "event"
    },
    {
      "anonymous": false,
      "inputs": [
        {
          "indexed": true,
          "internalType": "address",
          "name": "minter",
          "type": "address"
        },
        {
          "indexed": false,
          "internalType": "uint256",
          "name": "newAllowance",
          "type": "uint256"
        }
      ],
      "name": "MintingAllowanceChanged",
      "type": "event"
    },
    {
      "anonymous": false,
      "inputs": [
        {
          "indexed": true,
          "internalType": "contract IFeeSettingsV1",
          "name": "_feeSettings",
          "type": "address"
        }
      ],
      "name": "NewFeeSettingsSuggested",
      "type": "event"
    },
    {
      "anonymous": false,
      "inputs": [
        {
          "indexed": false,
          "internalType": "address",
          "name": "account",
          "type": "address"
        }
      ],
      "name": "Paused",
      "type": "event"
    },
    {
      "anonymous": false,
      "inputs": [
        {
          "indexed": false,
          "internalType": "uint256",
          "name": "newRequirements",
          "type": "uint256"
        }
      ],
      "name": "RequirementsChanged",
      "type": "event"
    },
    {
      "anonymous": false,
      "inputs": [
        {
          "indexed": true,
          "internalType": "bytes32",
          "name": "role",
          "type": "bytes32"
        },
        {
          "indexed": true,
          "internalType": "bytes32",
          "name": "previousAdminRole",
          "type": "bytes32"
        },
        {
          "indexed": true,
          "internalType": "bytes32",
          "name": "newAdminRole",
          "type": "bytes32"
        }
      ],
      "name": "RoleAdminChanged",
      "type": "event"
    },
    {
      "anonymous": false,
      "inputs": [
        {
          "indexed": true,
          "internalType": "bytes32",
          "name": "role",
          "type": "bytes32"
        },
        {
          "indexed": true,
          "internalType": "address",
          "name": "account",
          "type": "address"
        },
        {
          "indexed": true,
          "internalType": "address",
          "name": "sender",
          "type": "address"
        }
      ],
      "name": "RoleGranted",
      "type": "event"
    },
    {
      "anonymous": false,
      "inputs": [
        {
          "indexed": true,
          "internalType": "bytes32",
          "name": "role",
          "type": "bytes32"
        },
        {
          "indexed": true,
          "internalType": "address",
          "name": "account",
          "type": "address"
        },
        {
          "indexed": true,
          "internalType": "address",
          "name": "sender",
          "type": "address"
        }
      ],
      "name": "RoleRevoked",
      "type": "event"
    },
    {
      "anonymous": false,
      "inputs": [
        {
          "indexed": true,
          "internalType": "address",
          "name": "from",
          "type": "address"
        },
        {
          "indexed": true,
          "internalType": "address",
          "name": "to",
          "type": "address"
        },
        {
          "indexed": false,
          "internalType": "uint256",
          "name": "value",
          "type": "uint256"
        }
      ],
      "name": "Transfer",
      "type": "event"
    },
    {
      "anonymous": false,
      "inputs": [
        {
          "indexed": false,
          "internalType": "address",
          "name": "account",
          "type": "address"
        }
      ],
      "name": "Unpaused",
      "type": "event"
    },
    {
      "inputs": [],
      "name": "BURNER_ROLE",
      "outputs": [
        {
          "internalType": "bytes32",
          "name": "",
          "type": "bytes32"
        }
      ],
      "stateMutability": "view",
      "type": "function"
    },
    {
      "inputs": [],
      "name": "DEFAULT_ADMIN_ROLE",
      "outputs": [
        {
          "internalType": "bytes32",
          "name": "",
          "type": "bytes32"
        }
      ],
      "stateMutability": "view",
      "type": "function"
    },
    {
      "inputs": [],
      "name": "DOMAIN_SEPARATOR",
      "outputs": [
        {
          "internalType": "bytes32",
          "name": "",
          "type": "bytes32"
        }
      ],
      "stateMutability": "view",
      "type": "function"
    },
    {
      "inputs": [],
      "name": "MINTALLOWER_ROLE",
      "outputs": [
        {
          "internalType": "bytes32",
          "name": "",
          "type": "bytes32"
        }
      ],
      "stateMutability": "view",
      "type": "function"
    },
    {
      "inputs": [],
      "name": "PAUSER_ROLE",
      "outputs": [
        {
          "internalType": "bytes32",
          "name": "",
          "type": "bytes32"
        }
      ],
      "stateMutability": "view",
      "type": "function"
    },
    {
      "inputs": [],
      "name": "REQUIREMENT_ROLE",
      "outputs": [
        {
          "internalType": "bytes32",
          "name": "",
          "type": "bytes32"
        }
      ],
      "stateMutability": "view",
      "type": "function"
    },
    {
      "inputs": [],
      "name": "TRANSFERERADMIN_ROLE",
      "outputs": [
        {
          "internalType": "bytes32",
          "name": "",
          "type": "bytes32"
        }
      ],
      "stateMutability": "view",
      "type": "function"
    },
    {
      "inputs": [],
      "name": "TRANSFERER_ROLE",
      "outputs": [
        {
          "internalType": "bytes32",
          "name": "",
          "type": "bytes32"
        }
      ],
      "stateMutability": "view",
      "type": "function"
    },
    {
      "inputs": [
        {
          "internalType": "contract IFeeSettingsV1",
          "name": "_feeSettings",
          "type": "address"
        }
      ],
      "name": "acceptNewFeeSettings",
      "outputs": [],
      "stateMutability": "nonpayable",
      "type": "function"
    },
    {
      "inputs": [],
      "name": "allowList",
      "outputs": [
        {
          "internalType": "contract AllowList",
          "name": "",
          "type": "address"
        }
      ],
      "stateMutability": "view",
      "type": "function"
    },
    {
      "inputs": [
        {
          "internalType": "address",
          "name": "owner",
          "type": "address"
        },
        {
          "internalType": "address",
          "name": "spender",
          "type": "address"
        }
      ],
      "name": "allowance",
      "outputs": [
        {
          "internalType": "uint256",
          "name": "",
          "type": "uint256"
        }
      ],
      "stateMutability": "view",
      "type": "function"
    },
    {
      "inputs": [
        {
          "internalType": "address",
          "name": "spender",
          "type": "address"
        },
        {
          "internalType": "uint256",
          "name": "amount",
          "type": "uint256"
        }
      ],
      "name": "approve",
      "outputs": [
        {
          "internalType": "bool",
          "name": "",
          "type": "bool"
        }
      ],
      "stateMutability": "nonpayable",
      "type": "function"
    },
    {
      "inputs": [
        {
          "internalType": "address",
          "name": "account",
          "type": "address"
        }
      ],
      "name": "balanceOf",
      "outputs": [
        {
          "internalType": "uint256",
          "name": "",
          "type": "uint256"
        }
      ],
      "stateMutability": "view",
      "type": "function"
    },
    {
      "inputs": [
        {
          "internalType": "address",
          "name": "_from",
          "type": "address"
        },
        {
          "internalType": "uint256",
          "name": "_amount",
          "type": "uint256"
        }
      ],
      "name": "burn",
      "outputs": [],
      "stateMutability": "nonpayable",
      "type": "function"
    },
    {
      "inputs": [],
      "name": "decimals",
      "outputs": [
        {
          "internalType": "uint8",
          "name": "",
          "type": "uint8"
        }
      ],
      "stateMutability": "view",
      "type": "function"
    },
    {
      "inputs": [
        {
          "internalType": "address",
          "name": "spender",
          "type": "address"
        },
        {
          "internalType": "uint256",
          "name": "subtractedValue",
          "type": "uint256"
        }
      ],
      "name": "decreaseAllowance",
      "outputs": [
        {
          "internalType": "bool",
          "name": "",
          "type": "bool"
        }
      ],
      "stateMutability": "nonpayable",
      "type": "function"
    },
    {
      "inputs": [
        {
          "internalType": "address",
          "name": "_minter",
          "type": "address"
        },
        {
          "internalType": "uint256",
          "name": "_allowance",
          "type": "uint256"
        }
      ],
      "name": "decreaseMintingAllowance",
      "outputs": [],
      "stateMutability": "nonpayable",
      "type": "function"
    },
    {
      "inputs": [],
      "name": "feeSettings",
      "outputs": [
        {
          "internalType": "contract IFeeSettingsV1",
          "name": "",
          "type": "address"
        }
      ],
      "stateMutability": "view",
      "type": "function"
    },
    {
      "inputs": [
        {
          "internalType": "bytes32",
          "name": "role",
          "type": "bytes32"
        }
      ],
      "name": "getRoleAdmin",
      "outputs": [
        {
          "internalType": "bytes32",
          "name": "",
          "type": "bytes32"
        }
      ],
      "stateMutability": "view",
      "type": "function"
    },
    {
      "inputs": [
        {
          "internalType": "bytes32",
          "name": "role",
          "type": "bytes32"
        },
        {
          "internalType": "address",
          "name": "account",
          "type": "address"
        }
      ],
      "name": "grantRole",
      "outputs": [],
      "stateMutability": "nonpayable",
      "type": "function"
    },
    {
      "inputs": [
        {
          "internalType": "bytes32",
          "name": "role",
          "type": "bytes32"
        },
        {
          "internalType": "address",
          "name": "account",
          "type": "address"
        }
      ],
      "name": "hasRole",
      "outputs": [
        {
          "internalType": "bool",
          "name": "",
          "type": "bool"
        }
      ],
      "stateMutability": "view",
      "type": "function"
    },
    {
      "inputs": [
        {
          "internalType": "address",
          "name": "spender",
          "type": "address"
        },
        {
          "internalType": "uint256",
          "name": "addedValue",
          "type": "uint256"
        }
      ],
      "name": "increaseAllowance",
      "outputs": [
        {
          "internalType": "bool",
          "name": "",
          "type": "bool"
        }
      ],
      "stateMutability": "nonpayable",
      "type": "function"
    },
    {
      "inputs": [
        {
          "internalType": "address",
          "name": "_minter",
          "type": "address"
        },
        {
          "internalType": "uint256",
          "name": "_allowance",
          "type": "uint256"
        }
      ],
      "name": "increaseMintingAllowance",
      "outputs": [],
      "stateMutability": "nonpayable",
      "type": "function"
    },
    {
      "inputs": [
        {
          "internalType": "address",
          "name": "forwarder",
          "type": "address"
        }
      ],
      "name": "isTrustedForwarder",
      "outputs": [
        {
          "internalType": "bool",
          "name": "",
          "type": "bool"
        }
      ],
      "stateMutability": "view",
      "type": "function"
    },
    {
      "inputs": [
        {
          "internalType": "address",
          "name": "_to",
          "type": "address"
        },
        {
          "internalType": "uint256",
          "name": "_amount",
          "type": "uint256"
        }
      ],
      "name": "mint",
      "outputs": [],
      "stateMutability": "nonpayable",
      "type": "function"
    },
    {
      "inputs": [
        {
          "internalType": "address",
          "name": "",
          "type": "address"
        }
      ],
      "name": "mintingAllowance",
      "outputs": [
        {
          "internalType": "uint256",
          "name": "",
          "type": "uint256"
        }
      ],
      "stateMutability": "view",
      "type": "function"
    },
    {
      "inputs": [],
      "name": "name",
      "outputs": [
        {
          "internalType": "string",
          "name": "",
          "type": "string"
        }
      ],
      "stateMutability": "view",
      "type": "function"
    },
    {
      "inputs": [
        {
          "internalType": "address",
          "name": "owner",
          "type": "address"
        }
      ],
      "name": "nonces",
      "outputs": [
        {
          "internalType": "uint256",
          "name": "",
          "type": "uint256"
        }
      ],
      "stateMutability": "view",
      "type": "function"
    },
    {
      "inputs": [],
      "name": "pause",
      "outputs": [],
      "stateMutability": "nonpayable",
      "type": "function"
    },
    {
      "inputs": [],
      "name": "paused",
      "outputs": [
        {
          "internalType": "bool",
          "name": "",
          "type": "bool"
        }
      ],
      "stateMutability": "view",
      "type": "function"
    },
    {
      "inputs": [
        {
          "internalType": "address",
          "name": "owner",
          "type": "address"
        },
        {
          "internalType": "address",
          "name": "spender",
          "type": "address"
        },
        {
          "internalType": "uint256",
          "name": "value",
          "type": "uint256"
        },
        {
          "internalType": "uint256",
          "name": "deadline",
          "type": "uint256"
        },
        {
          "internalType": "uint8",
          "name": "v",
          "type": "uint8"
        },
        {
          "internalType": "bytes32",
          "name": "r",
          "type": "bytes32"
        },
        {
          "internalType": "bytes32",
          "name": "s",
          "type": "bytes32"
        }
      ],
      "name": "permit",
      "outputs": [],
      "stateMutability": "nonpayable",
      "type": "function"
    },
    {
      "inputs": [
        {
          "internalType": "bytes32",
          "name": "role",
          "type": "bytes32"
        },
        {
          "internalType": "address",
          "name": "account",
          "type": "address"
        }
      ],
      "name": "renounceRole",
      "outputs": [],
      "stateMutability": "nonpayable",
      "type": "function"
    },
    {
      "inputs": [],
      "name": "requirements",
      "outputs": [
        {
          "internalType": "uint256",
          "name": "",
          "type": "uint256"
        }
      ],
      "stateMutability": "view",
      "type": "function"
    },
    {
      "inputs": [
        {
          "internalType": "bytes32",
          "name": "role",
          "type": "bytes32"
        },
        {
          "internalType": "address",
          "name": "account",
          "type": "address"
        }
      ],
      "name": "revokeRole",
      "outputs": [],
      "stateMutability": "nonpayable",
      "type": "function"
    },
    {
      "inputs": [
        {
          "internalType": "contract AllowList",
          "name": "_allowList",
          "type": "address"
        }
      ],
      "name": "setAllowList",
      "outputs": [],
      "stateMutability": "nonpayable",
      "type": "function"
    },
    {
      "inputs": [
        {
          "internalType": "uint256",
          "name": "_requirements",
          "type": "uint256"
        }
      ],
      "name": "setRequirements",
      "outputs": [],
      "stateMutability": "nonpayable",
      "type": "function"
    },
    {
      "inputs": [
        {
          "internalType": "contract IFeeSettingsV1",
          "name": "_feeSettings",
          "type": "address"
        }
      ],
      "name": "suggestNewFeeSettings",
      "outputs": [],
      "stateMutability": "nonpayable",
      "type": "function"
    },
    {
      "inputs": [],
      "name": "suggestedFeeSettings",
      "outputs": [
        {
          "internalType": "contract IFeeSettingsV1",
          "name": "",
          "type": "address"
        }
      ],
      "stateMutability": "view",
      "type": "function"
    },
    {
      "inputs": [
        {
          "internalType": "bytes4",
          "name": "interfaceId",
          "type": "bytes4"
        }
      ],
      "name": "supportsInterface",
      "outputs": [
        {
          "internalType": "bool",
          "name": "",
          "type": "bool"
        }
      ],
      "stateMutability": "view",
      "type": "function"
    },
    {
      "inputs": [],
      "name": "symbol",
      "outputs": [
        {
          "internalType": "string",
          "name": "",
          "type": "string"
        }
      ],
      "stateMutability": "view",
      "type": "function"
    },
    {
      "inputs": [],
      "name": "totalSupply",
      "outputs": [
        {
          "internalType": "uint256",
          "name": "",
          "type": "uint256"
        }
      ],
      "stateMutability": "view",
      "type": "function"
    },
    {
      "inputs": [
        {
          "internalType": "address",
          "name": "to",
          "type": "address"
        },
        {
          "internalType": "uint256",
          "name": "amount",
          "type": "uint256"
        }
      ],
      "name": "transfer",
      "outputs": [
        {
          "internalType": "bool",
          "name": "",
          "type": "bool"
        }
      ],
      "stateMutability": "nonpayable",
      "type": "function"
    },
    {
      "inputs": [
        {
          "internalType": "address",
          "name": "from",
          "type": "address"
        },
        {
          "internalType": "address",
          "name": "to",
          "type": "address"
        },
        {
          "internalType": "uint256",
          "name": "amount",
          "type": "uint256"
        }
      ],
      "name": "transferFrom",
      "outputs": [
        {
          "internalType": "bool",
          "name": "",
          "type": "bool"
        }
      ],
      "stateMutability": "nonpayable",
      "type": "function"
    },
    {
      "inputs": [],
      "name": "unpause",
      "outputs": [],
      "stateMutability": "nonpayable",
      "type": "function"
    }
  ],
  "bytecode": "0x61016060409080825234620009c057620039ab8038038091620000238285620009c5565b833981019160e082840312620009c0576200003e82620009e9565b6020838101516001600160a01b0394929392919085811690819003620009c0576200006b848401620009e9565b96606084015192878416809403620009c057608085015160a086015190956001600160401b0391828111620009c05784620000a8918301620009fe565b9360c0820151838111620009c057620000c29201620009fe565b92875198888a018a811084821117620008cd578952600191828b52848b0191603160f81b83526080528051848111620008cd5760038054918583811c93168015620009b5575b888410146200099f57601f9283811162000954575b508088848211600114620008ef57600091620008e3575b5060001982841b1c191690861b1781555b875191868311620008cd5760049889548781811c91168015620008c2575b8a821014620008ad57908183869594931162000853575b5089918411600114620007e857600093620007dc575b505082861b92600019911b1c19161786555b848151910120995190206101009b8a8d526101209b828d524660c0528a5192868401907f8b73c3c69bb8fe3d512ecc4cf759cc79239f7b179b0ffacaa9a75d522b39400f9d8e83528d86015260608501524660808501523060a085015260a0845260c084019584871090871117620007c757908b92918684528451902060a0523060e0526101409c8d5260ff198060075416600755600080526008808952828560002094169384600052895260ff808660002054161562000782575b7f4f95d38bdf1c10f97389d9165d78fbae18ad4454e53a8ce330a76ca571454f856000818152838c528781208a0180547f5f3cf5f7a34c4219be4a883013598ca17ede8d1af0f0b116191f23720843476e91829055909283927fbd79b86ffe0ab8e8776151514217cd7cacd52c909f66475c3af44e129f0b00ff9080a47f2d29c462e39c1edaa929da752b4083529445800a94410a49a478830674cfa5b38060005287600020876000528c5282886000205416156200073c575b507f88d2e711432a56a84b4119a73de6f558109a518df3d6caec64f9c5ecd9ee619980600052838c5287600020876000528c528288600020541615620006f6575b507f3c11d16cbaffd01df69ce1c404f6340ee057498f5f00246190ea54220576a84880600052838c5287600020876000528c528288600020541615620006b0575b5080600052828b5286600020866000528b5281876000205416156200066a575b507f65d7a28e3265b37a6474929f336521b332c1681b933f6cb9f3376673440d862a9586600052828b5280600020866000528b5260002054161562000623575b50505050506301ffc9a760e01b928381528360c483015284816024818a5afa9182156200061857906200043d939291600092620005de575b505015151462000a8f565b86518181526001600160e01b0319848201528281602481885afa908115620005d357906200047691600091620005b1575b501562000a8f565b86519081526318cc96f360e31b838201528181602481875afa908115620005a65790620004ad9160009162000572575b5062000a8f565b600a80546001600160a01b031990811690941790558315620005255750506009541617600955600c555191612e77938462000b1485396080518481816112e70152612dc4015260a05184612854015260c05184612920015260e0518461281e015251836128a3015251826128c9015251816128800152f35b855162461bcd60e51b815291820152602260248201527f416c6c6f774c697374206d757374206e6f74206265207a65726f206164647265604482015261737360f01b606482015260849150fd5b620005979150833d85116200059e575b6200058e8183620009c5565b81019062000a75565b38620004a6565b503d62000582565b87513d6000823e3d90fd5b620005cc9150843d86116200059e576200058e8183620009c5565b386200046e565b88513d6000823e3d90fd5b62000607925060c09087903d89116200060f575b620005fe8285620009c5565b01019062000a75565b388062000432565b3d9150620005f2565b8a513d6000823e3d90fd5b8460005288528c600020836000528852858d600020918254161790556200064962000aee565b16916000805160206200398b833981519152600080a43880808080620003fa565b80600052828b5286600020866000528b5286600020898582541617905585856200069362000aee565b16916000805160206200398b833981519152600080a438620003ba565b80600052838c5287600020876000528c52876000208a868254161790558686620006d962000aee565b16916000805160206200398b833981519152600080a4386200039a565b80600052838c5287600020876000528c52876000208a8682541617905586866200071f62000aee565b16916000805160206200398b833981519152600080a43862000359565b80600052838c5287600020876000528c52876000208a8682541617905586866200076562000aee565b16916000805160206200398b833981519152600080a43862000318565b60008052818a5285600020856000528a5285600020888482541617905583620007aa62000aee565b168560006000805160206200398b8339815191528180a46200025e565b604188634e487b7160e01b6000525260246000fd5b01519150388062000190565b9190879450601f198416928b6000528a6000209360005b8c8282106200083c575050851162000821575b50505050811b018655620001a2565b01519060f884600019921b161c191690553880808062000812565b8385015187558b98909601959384019301620007ff565b90919293508a600052896000208380870160051c8201928c8810620008a3575b918a918897969594930160051c01915b828110620008935750506200017a565b600081558796508a910162000883565b9250819262000873565b60228b634e487b7160e01b6000525260246000fd5b90607f169062000163565b634e487b7160e01b600052604160045260246000fd5b90508401513862000134565b879250601f19821690846000528a6000209160005b8c8282106200093d575050831162000924575b5050811b01815562000145565b86015160001983861b60f8161c19169055388062000917565b838a015185558b9690940193928301920162000904565b82600052886000208480840160051c8201928b851062000995575b0160051c019087905b828110620009885750506200011d565b6000815501879062000978565b925081926200096f565b634e487b7160e01b600052602260045260246000fd5b92607f169262000108565b600080fd5b601f909101601f19168101906001600160401b03821190821017620008cd57604052565b51906001600160a01b0382168203620009c057565b919080601f84011215620009c0578251906001600160401b038211620008cd576040519160209162000a3a601f8301601f1916840185620009c5565b818452828287010111620009c05760005b81811062000a6157508260009394955001015290565b858101830151848201840152820162000a4b565b90816020910312620009c057518015158103620009c05790565b1562000a9757565b60405162461bcd60e51b815260206004820152602960248201527f46656553657474696e6773206d75737420696d706c656d656e74204946656553604482015268657474696e6773563160b81b6064820152608490fd5b608051336001600160a01b039091160362000b0f5736601319013560601c90565b339056fe608060408181526004918236101561001657600080fd5b600092833560e01c91826301ffc9a714611b615750816306fdde0314611a6c578163095ea7b314611a3b5781630ade7dc114611a0057816318160ddd146119e15781631c6603ba146119b85781631e53da1f146118d957816323b872dd14611800578163248a9ca3146117d5578163282c51f31461179a5781632f2ff15d146116e3578163313ce567146116c75781633644e515146116a357816336568abe1461160757816338e6f8ed1461157c57816339509351146115225781633f4ba83a1461148c57816340c10f191461130e578163572b6c05146112bc5781635c975abb1461129857816361f5d2371461125d57816370a0823114611226578163720640f6146111fd5781637ea9043b146111c25781637ecebe001461118a57816381b97161146111525781638456cb59146110e457816387b9d25c146110bb57816391d148541461107457816395d89b4114610f715781639b051bb614610d7f5781639dc29fac146108aa578163a217fddf1461088f578163a457c2d7146107dd578163a51b4b65146107be578163a9059cbb14610786578163d505accf1461059c578163d547741f1461055d578163dd62ed3e14610514578163e63ab1e9146104d9578163e66b1a201461045e578163ed6d06c01461039b578163ed73fc6314610246575063fa3ecc0c1461020957600080fd5b34610242578160031936011261024257602090517f5f3cf5f7a34c4219be4a883013598ca17ede8d1af0f0b116191f23720843476e8152f35b5080fd5b905034610397576020366003190112610397576001600160a01b0381358181169390929184840361039357610279612dc1565b9083602082600a5416855192838092638da5cb5b60e01b82525afa90811561038957908291899161035b575b50169116036102f25750506102b990612c86565b600b80546001600160a01b031916821790557fc40ddaaa7c5ab76f211947e153a03eef9bf9d0da7e46b0262f42a8130a6671d68280a280f35b906020608492519162461bcd60e51b8352820152603760248201527f4f6e6c79206665652073657474696e6773206f776e65722063616e207375676760448201527f657374206665652073657474696e6773207570646174650000000000000000006064820152fd5b61037c915060203d8111610382575b61037481836121cf565b810190612946565b386102a5565b503d61036a565b84513d8a823e3d90fd5b8580fd5b8280fd5b9050346103975760203660031901126103975780356001600160a01b038116929083900361045a576103cb611c34565b821561040c575050600980546001600160a01b031916821790557fc6bb007d5073aca60e38964dbf6930bee55f9c8cacae4019360cadf88110a54f8280a280f35b906020608492519162461bcd60e51b8352820152602260248201527f416c6c6f774c697374206d757374206e6f74206265207a65726f206164647265604482015261737360f01b6064820152fd5b8380fd5b5050346102425780600319360112610242577fb7743bea6198bf7788bc1aaafb56c847702be384941993cc06f6912b4b6117cc602061049b611c03565b6104a3611df1565b60018060a01b031692838552600d82528085206104c3602435825461227d565b9055838552600d8252808520549051908152a280f35b505034610242578160031936011261024257602090517f65d7a28e3265b37a6474929f336521b332c1681b933f6cb9f3376673440d862a8152f35b50503461024257806003193601126102425780602092610532611c03565b61053a611c1e565b6001600160a01b0391821683526001865283832091168252845220549051908152f35b9190503461039757806003193601126103975761059991356105946001610582611c1e565b9383875260086020528620015461208b565b6121f1565b80f35b839150346102425760e0366003190112610242576105b8611c03565b6105c0611c1e565b90604435926064356084359060ff821682036107825780421161073f5760018060a01b03908185169283895260056020528989208054906001820190558a519260208401917f6e71edae12b1b97f4d1f60370fef10105fa2faae0126114a169c64845d6126c98352868d860152858a1660608601528a608086015260a085015260c084015260c0835260e083019267ffffffffffffffff938181108582111761072c578c525190209061067161281b565b928b5192602084019461190160f01b8652602285015260428401526042835260808301908382109082111761071957916106c493916106bc938d5260c4359260a4359251902061278c565b919091612672565b16036106d6575061059993945061244c565b606490602087519162461bcd60e51b8352820152601e60248201527f45524332305065726d69743a20696e76616c6964207369676e617475726500006044820152fd5b634e487b7160e01b8b526041875260248bfd5b634e487b7160e01b8c526041885260248cfd5b875162461bcd60e51b8152602081850152601d60248201527f45524332305065726d69743a206578706972656420646561646c696e650000006044820152606490fd5b8680fd5b5050346102425780600319360112610242576020906107b76107a6611c03565b602435906107b2612dc1565b6122a0565b5160018152f35b505034610242578160031936011261024257602090600c549051908152f35b839150346102425782600319360112610242576107f8611c03565b906024359084610806612dc1565b6001600160a01b038082168752600160209081528388209187168852529420549082821061083e576020866107b7858503878961244c565b608490602087519162461bcd60e51b8352820152602560248201527f45524332303a2064656372656173656420616c6c6f77616e63652062656c6f77604482015264207a65726f60d81b6064820152fd5b50503461024257816003193601126102425751908152602090f35b8383346102425780600319360112610242576108c4611c03565b906024908135916108d3612dc1565b7f3c11d16cbaffd01df69ce1c404f6340ee057498f5f00246190ea54220576a848808752600860209081528488206001600160a01b03938416808a5290825285892054919993929160ff1615610bdb575050808616958615801590610b8f5761093a612a1d565b80610b88575b6109ea575b5050848652858752828620549184831061099d57505091849591817fddf252ad1be2c89b69c2b068fc378daa952ba7f163c4a11628f55a4df523b3ef948688528785520381872055816002540360025551908152a380f35b835162461bcd60e51b81529182018890526022908201527f45524332303a206275726e20616d6f756e7420657863656564732062616c616e604482015261636560f01b6064820152608490fd5b6109f390612a61565b7f4f95d38bdf1c10f97389d9165d78fbae18ad4454e53a8ce330a76ca571454f858752600888528387208780528852828860ff868a205416928315610b14575b50505015610a42578780610945565b609760e4928885519362461bcd60e51b85528401528201527f53656e646572206f72205265636569766572206973206e6f7420616c6c6f776560448201527f6420746f207472616e736163742e20456974686572206c6f63616c6c7920697360648201527f7375652074686520726f6c652061732061205452414e534645524552206f722060848201527f74686579206d757374206d65657420726571756972656d656e7473206173206460a48201527619599a5b9959081a5b881d1a1948185b1b1bddd31a5cdd604a1b60c4820152fd5b9091925060095416855192838092635b90f7b760e11b82528b878301525afa908115610b7e578791610b51575b50600c548091161482888a610a33565b90508781813d8311610b77575b610b6881836121cf565b81010312610782575188610b41565b503d610b5e565b84513d89823e3d90fd5b5087610940565b855162461bcd60e51b81528085018b90526021818701527f45524332303a206275726e2066726f6d20746865207a65726f206164647265736044820152607360f81b6064820152608490fd5b8989868894610bea8895612575565b9091865192610bf88461219d565b60428452858401946060368737845115610d6d5760308653845190600191821015610d5b5790607860218701536041915b818311610cf257505050610cc35750610cbf938693610cab93610c9c604894610c739a519a85600080516020612e228339815191528d978801528251928391603789019101611bb4565b8401917001034b99036b4b9b9b4b733903937b6329607d1b603784015251809386840190611bb4565b010360288101875201856121cf565b5162461bcd60e51b81529283928301611bd7565b0390fd5b9250505081606494519362461bcd60e51b8552840152820152600080516020612e028339815191526044820152fd5b909192600f81166010811015610d49576f181899199a1a9b1b9c1cb0b131b232b360811b901a610d22858961254e565b53891c928015610d3757600019019190610c29565b634e487b7160e01b825260118a528482fd5b634e487b7160e01b835260328b528583fd5b634e487b7160e01b8152603289528390fd5b634e487b7160e01b8152603288529050fd5b83915034610242576020908160031936011261039757803590610da0612dc1565b7f2d29c462e39c1edaa929da752b4083529445800a94410a49a478830674cfa5b3808652600885528686206001600160a01b039092168087529185528686205490919060ff1615610e1d575050507ff6388ec9bc8e17ab5aa5bafcdfdc9237a4c031c59c5c494d7493e5865d8530ab929381600c5551908152a180f35b610e2a9192959350612575565b855191610e368361219d565b60428352848301936060368637835115610f5e5760308553835190600191821015610f4b5790607860218601536041915b818311610ee057505050610eb057610cbf938693610cab93610c9c604894610c739a519a85600080516020612e228339815191528d978801528251928391603789019101611bb4565b50505080606493519262461bcd60e51b84528301526024820152600080516020612e028339815191526044820152fd5b909192600f81166010811015610f38576f181899199a1a9b1b9c1cb0b131b232b360811b901a610f10858861254e565b53881c928015610f2557600019019190610e67565b634e487b7160e01b825260118952602482fd5b634e487b7160e01b835260328a52602483fd5b634e487b7160e01b815260328852602490fd5b634e487b7160e01b815260328752602490fd5b838334610242578160031936011261024257805191809380549160019083821c9282851694851561106a575b6020958686108114611057578589529081156110335750600114610fdb575b610fd78787610fcd828c03836121cf565b5191829182611bd7565b0390f35b81529295507f8a35acfbc15ff81a39ae7d344fd709f28e8600b4aa8c65c6b64bfe7fe36bd19b5b8284106110205750505082610fd794610fcd92820101948680610fbc565b8054868501880152928601928101611002565b60ff19168887015250505050151560051b8301019250610fcd82610fd78680610fbc565b634e487b7160e01b845260228352602484fd5b93607f1693610f9d565b9050346103975781600319360112610397578160209360ff92611095611c1e565b90358252600886528282206001600160a01b039091168252855220549151911615158152f35b50503461024257816003193601126102425760095490516001600160a01b039091168152602090f35b50503461024257816003193601126102425760207f62e78cea01bee320cd4e420270b5ea74000d11b0c9f74754ebdbfc544b05a25891611122611f3e565b61112a612a1d565b600160ff19600754161760075561113f612dc1565b90516001600160a01b039091168152a180f35b5050346102425760203660031901126102425760209181906001600160a01b0361117a611c03565b168152600d845220549051908152f35b5050346102425760203660031901126102425760209181906001600160a01b036111b2611c03565b1681526005845220549051908152f35b505034610242578160031936011261024257602090517f2d29c462e39c1edaa929da752b4083529445800a94410a49a478830674cfa5b38152f35b505034610242578160031936011261024257600b5490516001600160a01b039091168152602090f35b5050346102425760203660031901126102425760209181906001600160a01b0361124e611c03565b16815280845220549051908152f35b505034610242578160031936011261024257602090517f88d2e711432a56a84b4119a73de6f558109a518df3d6caec64f9c5ecd9ee61998152f35b50503461024257816003193601126102425760209060ff6007541690519015158152f35b505034610242576020366003190112610242576020906112da611c03565b90519060018060a01b03807f0000000000000000000000000000000000000000000000000000000000000000169116148152f35b905034610397578160031936011261039757611328611c03565b602435916001600160a01b038061133d612dc1565b1692838752602093600d85528587892054106114495761137d9186918952600d865287892061136d838254612965565b905561137881612a61565b612972565b600a541684519363023624a160e41b8552828501528284602481845afa93841561143f578694611410575b50836113b2578580f35b82908551928380926331056e5760e21b82525afa918215611406576113e0945085926113e9575b5050612972565b38808080808580f35b6113ff9250803d106103825761037481836121cf565b38806113d9565b84513d87823e3d90fd5b9093508281813d8311611438575b61142881836121cf565b81010312610393575192386113a8565b503d61141e565b85513d88823e3d90fd5b865162461bcd60e51b8152808501869052601860248201527f4d696e74696e67416c6c6f77616e636520746f6f206c6f7700000000000000006044820152606490fd5b9050346103975782600319360112610397576114a6611f3e565b6007549060ff8216156114e8575060ff19166007557f5db9ee0a495bf2e6ff9c91a7834c1ba4fdd244a5e8aa4e537bd38aeae4b073aa9060209061113f612dc1565b606490602084519162461bcd60e51b8352820152601460248201527314185d5cd8589b194e881b9bdd081c185d5cd95960621b6044820152fd5b5050346102425780600319360112610242576107b7602092611542611c03565b61157661154d612dc1565b6001600160a01b038082168552600188528685209084168552875292859020546024359061227d565b9161244c565b5050346102425780600319360112610242577fb7743bea6198bf7788bc1aaafb56c847702be384941993cc06f6912b4b6117cc60206115b9611c03565b92602435936115c6611df1565b6001600160a01b0316808652600d8352818620549094908110156115f957848652600d83526104c3828720918254612965565b50848181205551848152a280f35b83915034610242578260031936011261024257611622611c1e565b906001600160a01b0380611634612dc1565b1690831603611648579061059991356121f1565b608490602085519162461bcd60e51b8352820152602f60248201527f416363657373436f6e74726f6c3a2063616e206f6e6c792072656e6f756e636560448201526e103937b632b9903337b91039b2b63360891b6064820152fd5b5050346102425781600319360112610242576020906116c061281b565b9051908152f35b5050346102425781600319360112610242576020905160128152f35b90503461039757816003193601126103975735906116ff611c1e565b82845260086020526117166001838620015461208b565b828452600860209081528285206001600160a01b0392831680875291528285205490929060ff1615611746578480f35b83855260086020528085208386526020528420600160ff1982541617905561176c612dc1565b16917f2f8788117e7eff1d82e926ec794901d17c78024a50270940304540a733656f0d8480a4388080808480f35b505034610242578160031936011261024257602090517f3c11d16cbaffd01df69ce1c404f6340ee057498f5f00246190ea54220576a8488152f35b9050346103975760203660031901126103975781602093600192358152600885522001549051908152f35b905082346118d65760603660031901126118d65761181c611c03565b611824611c1e565b916044359385611832612dc1565b9260018060a01b03808616825260016020528282209085168252602052205490600019820361186a575b6020876107b78888886122a0565b8582106118935750916118896107b7949286602098979503908361244c565b919394819361185c565b606490602088519162461bcd60e51b8352820152601d60248201527f45524332303a20696e73756666696369656e7420616c6c6f77616e63650000006044820152fd5b80fd5b919050346103975760203660031901126103975781356001600160a01b038181169391848103610393576119149061190f611c34565b612c86565b600b5416918284036119615750506bffffffffffffffffffffffff60a01b600a541617600a557fa7850e78981a8f39d35976b34761b1eda3175df28e98f7c72b736d85ee958ceb8280a280f35b906020608492519162461bcd60e51b8352820152602b60248201527f4f6e6c7920737567676573746564206665652073657474696e67732063616e2060448201526a1899481858d8d95c1d195960aa1b6064820152fd5b505034610242578160031936011261024257600a5490516001600160a01b039091168152602090f35b5050346102425781600319360112610242576020906002549051908152f35b505034610242578160031936011261024257602090517f4f95d38bdf1c10f97389d9165d78fbae18ad4454e53a8ce330a76ca571454f858152f35b5050346102425780600319360112610242576020906107b7611a5b611c03565b60243590611a67612dc1565b61244c565b91905034610397578260031936011261039757805191836003549060019082821c928281168015611b57575b6020958686108214611b445750848852908115611b225750600114611ac9575b610fd78686610fcd828b03836121cf565b929550600383527fc2575a0e9e593c00f959f8c92f12db2869c3395a3b0502d05e2516446f71f85b5b828410611b0f5750505082610fd794610fcd928201019438611ab8565b8054868501880152928601928101611af2565b60ff191687860152505050151560051b8301019250610fcd82610fd738611ab8565b634e487b7160e01b845260229052602483fd5b93607f1693611a98565b849134610397576020366003190112610397573563ffffffff60e01b81168091036103975760209250637965db0b60e01b8114908115611ba3575b5015158152f35b6301ffc9a760e01b14905083611b9c565b60005b838110611bc75750506000910152565b8181015183820152602001611bb7565b60409160208252611bf78151809281602086015260208686019101611bb4565b601f01601f1916010190565b600435906001600160a01b0382168203611c1957565b600080fd5b602435906001600160a01b0382168203611c1957565b611c3c612dc1565b6001600160a01b031660008181527f5eff886ea0ce6ca488a3d6e336d6c0f75f46d19b42c06ce5ee98e42c96d256c7602090815260408083205490939192919060ff1615611c8a5750505050565b611c9390612575565b83519082611ca08361219d565b60428352848301936060368637835115611ddd5760308553835190600191821015611ddd5790607860218601536041915b818311611d6f57505050611d3f57610c73938593611d2993611d1a604894610cbf99519885600080516020612e228339815191528b978801528251928391603789019101611bb4565b010360288101855201836121cf565b5162461bcd60e51b815291829160048301611bd7565b60648486519062461bcd60e51b82528060048301526024820152600080516020612e028339815191526044820152fd5b909192600f81166010811015611dc9576f181899199a1a9b1b9c1cb0b131b232b360811b901a611d9f858861254e565b5360041c928015611db557600019019190611cd1565b634e487b7160e01b82526011600452602482fd5b634e487b7160e01b83526032600452602483fd5b634e487b7160e01b81526032600452602490fd5b611df9612dc1565b6001600160a01b031660008181527fa067e2d58a39837c1c1edfdb4dc608ff6bc9f5f92431865040ef317afc6c02d2602090815260408083205490939192917f88d2e711432a56a84b4119a73de6f558109a518df3d6caec64f9c5ecd9ee61999160ff1615611e69575050505050565b611e7290612575565b845191611e7e8361219d565b60428352848301936060368637835115611ddd5760308553835190600191821015611ddd5790607860218601536041915b818311611ef857505050611d3f57610c73938593611d2993611d1a604894610cbf99519885600080516020612e228339815191528b978801528251928391603789019101611bb4565b909192600f81166010811015611dc9576f181899199a1a9b1b9c1cb0b131b232b360811b901a611f28858861254e565b5360041c928015611db557600019019190611eaf565b611f46612dc1565b6001600160a01b031660008181527f62e8532f45d82220ddea5da89acccbf142e829ab973b22f3386ec35cb0f92901602090815260408083205490939192917f65d7a28e3265b37a6474929f336521b332c1681b933f6cb9f3376673440d862a9160ff1615611fb6575050505050565b611fbf90612575565b845191611fcb8361219d565b60428352848301936060368637835115611ddd5760308553835190600191821015611ddd5790607860218601536041915b81831161204557505050611d3f57610c73938593611d2993611d1a604894610cbf99519885600080516020612e228339815191528b978801528251928391603789019101611bb4565b909192600f81166010811015611dc9576f181899199a1a9b1b9c1cb0b131b232b360811b901a612075858861254e565b5360041c928015611db557600019019190611ffc565b612093612dc1565b906000818152602091600883526040938483209060018060a01b031690818452845260ff8584205416156120c8575050505050565b6120d190612575565b8451916120dd8361219d565b60428352848301936060368637835115611ddd5760308553835190600191821015611ddd5790607860218601536041915b81831161215757505050611d3f57610c73938593611d2993611d1a604894610cbf99519885600080516020612e228339815191528b978801528251928391603789019101611bb4565b909192600f81166010811015611dc9576f181899199a1a9b1b9c1cb0b131b232b360811b901a612187858861254e565b5360041c928015611db55760001901919061210e565b6080810190811067ffffffffffffffff8211176121b957604052565b634e487b7160e01b600052604160045260246000fd5b90601f8019910116810190811067ffffffffffffffff8211176121b957604052565b60008181526008602090815260408083206001600160a01b039586168085529252822054919390929160ff16612228575b50505050565b7ff6391f5c32d9c69d2a47ea670b442974b53935d1edc7fd64eb21e047a839171b908285526008602052604085208486526020526040852060ff198154169055612270612dc1565b169380a438808080612222565b9190820180921161228a57565b634e487b7160e01b600052601160045260246000fd5b6001600160a01b0380821680158015959194919392906123f95781169485156123a8576122cb612a1d565b806123a0575b612388575b505060008281528060205260408120549180831061233457604082827fddf252ad1be2c89b69c2b068fc378daa952ba7f163c4a11628f55a4df523b3ef958760209652828652038282205586815220818154019055604051908152a3565b60405162461bcd60e51b815260206004820152602660248201527f45524332303a207472616e7366657220616d6f756e7420657863656564732062604482015265616c616e636560d01b6064820152608490fd5b61239461239992612a61565b612a61565b38806122d6565b5060016122d1565b60405162461bcd60e51b815260206004820152602360248201527f45524332303a207472616e7366657220746f20746865207a65726f206164647260448201526265737360e81b6064820152608490fd5b60405162461bcd60e51b815260206004820152602560248201527f45524332303a207472616e736665722066726f6d20746865207a65726f206164604482015264647265737360d81b6064820152608490fd5b6001600160a01b039081169182156124fd57169182156124ad5760207f8c5be1e5ebec7d5bd14f71427d1e84f3dd0314c0f7b2291e5b200ac8c7c3b925918360005260018252604060002085600052825280604060002055604051908152a3565b60405162461bcd60e51b815260206004820152602260248201527f45524332303a20617070726f766520746f20746865207a65726f206164647265604482015261737360f01b6064820152608490fd5b60405162461bcd60e51b8152602060048201526024808201527f45524332303a20617070726f76652066726f6d20746865207a65726f206164646044820152637265737360e01b6064820152608490fd5b90815181101561255f570160200190565b634e487b7160e01b600052603260045260246000fd5b604051906060820182811067ffffffffffffffff8211176121b957604052602a825260208201604036823782511561255f5760309053815160019081101561255f57607860218401536029905b8082116126045750506125d25790565b606460405162461bcd60e51b81526020600482015260206024820152600080516020612e028339815191526044820152fd5b9091600f8116601081101561265d576f181899199a1a9b1b9c1cb0b131b232b360811b901a612633848661254e565b5360041c9180156126485760001901906125c2565b60246000634e487b7160e01b81526011600452fd5b60246000634e487b7160e01b81526032600452fd5b600581101561277657806126835750565b600181036126d05760405162461bcd60e51b815260206004820152601860248201527f45434453413a20696e76616c6964207369676e617475726500000000000000006044820152606490fd5b6002810361271d5760405162461bcd60e51b815260206004820152601f60248201527f45434453413a20696e76616c6964207369676e6174757265206c656e677468006044820152606490fd5b60031461272657565b60405162461bcd60e51b815260206004820152602260248201527f45434453413a20696e76616c6964207369676e6174757265202773272076616c604482015261756560f01b6064820152608490fd5b634e487b7160e01b600052602160045260246000fd5b9291907f7fffffffffffffffffffffffffffffff5d576e7357a4501ddfe92f46681b20a0831161280f5791608094939160ff602094604051948552168484015260408301526060820152600093849182805260015afa156128025781516001600160a01b038116156127fc579190565b50600190565b50604051903d90823e3d90fd5b50505050600090600390565b307f00000000000000000000000000000000000000000000000000000000000000006001600160a01b0316148061291d575b15612876577f000000000000000000000000000000000000000000000000000000000000000090565b60405160208101907f000000000000000000000000000000000000000000000000000000000000000082527f000000000000000000000000000000000000000000000000000000000000000060408201527f000000000000000000000000000000000000000000000000000000000000000060608201524660808201523060a082015260a0815260c0810181811067ffffffffffffffff8211176121b95760405251902090565b507f0000000000000000000000000000000000000000000000000000000000000000461461284d565b90816020910312611c1957516001600160a01b0381168103611c195790565b9190820391821161228a57565b6001600160a01b03169081156129d8577fddf252ad1be2c89b69c2b068fc378daa952ba7f163c4a11628f55a4df523b3ef60206000926129b0612a1d565b6129bc8160025461227d565b60025584845283825260408420818154019055604051908152a3565b60405162461bcd60e51b815260206004820152601f60248201527f45524332303a206d696e7420746f20746865207a65726f2061646472657373006044820152606490fd5b60ff60075416612a2957565b60405162461bcd60e51b815260206004820152601060248201526f14185d5cd8589b194e881c185d5cd95960821b6044820152606490fd5b6001600160a01b0390811660008181527fb606a9dc9a5730ea178c4dd502078a5d205a10af5267d7846ec796290a5ed35060209081526040822054909360ff909116929084908415612b90575b5050505015612aba5750565b60e4906040519062461bcd60e51b82526004820152609760248201527f53656e646572206f72205265636569766572206973206e6f7420616c6c6f776560448201527f6420746f207472616e736163742e20456974686572206c6f63616c6c7920697360648201527f7375652074686520726f6c652061732061205452414e534645524552206f722060848201527f74686579206d757374206d65657420726571756972656d656e7473206173206460a48201527619599a5b9959081a5b881d1a1948185b1b1bddd31a5cdd604a1b60c4820152fd5b90919293506009541691602460405180948193635b90f7b760e11b835260048301525afa918215612c04578092612bd4575b5050600c548091161438808381612aae565b9091508282813d8311612bfd575b612bec81836121cf565b810103126118d65750513880612bc2565b503d612be2565b604051903d90823e3d90fd5b90816020910312611c1957518015158103611c195790565b15612c2f57565b60405162461bcd60e51b815260206004820152602960248201527f46656553657474696e6773206d75737420696d706c656d656e74204946656553604482015268657474696e6773563160b81b6064820152608490fd5b604080516301ffc9a760e01b808252600482018190529193926020926001600160a01b03909116918381602481865afa908115612d9957612cd591600191600091612da4575b50151514612c28565b84518181526001600160e01b03196004820152908382602481865afa918215612d99578492612d0d91600091612d7c575b5015612c28565b602486518094819382526318cc96f360e31b60048301525afa918215612d7157612d42939450600092612d44575b5050612c28565b565b612d639250803d10612d6a575b612d5b81836121cf565b810190612c10565b3880612d3b565b503d612d51565b84513d6000823e3d90fd5b612d939150843d8611612d6a57612d5b81836121cf565b38612d06565b86513d6000823e3d90fd5b612dbb9150863d8811612d6a57612d5b81836121cf565b38612ccc565b337f00000000000000000000000000000000000000000000000000000000000000006001600160a01b031603612dfd5736601319013560601c90565b339056fe537472696e67733a20686578206c656e67746820696e73756666696369656e74416363657373436f6e74726f6c3a206163636f756e7420000000000000000000a2646970667358221220fe34bcca0df8bd362398af87a3cfc8cda9ef53a7bf4695dd7f95e8988f35908764736f6c634300081100332f8788117e7eff1d82e926ec794901d17c78024a50270940304540a733656f0d",
  "linkReferences": {},
  "deployedLinkReferences": {}
}